:020000040800F2
:100000004804002045010008B30B00080D0B000850
:10001000B10B00088D010008090E00080000000067
:10002000000000000000000000000000D70B0008E6
:100030008F01000800000000D50B0008D90B000854
:100040005F0100085F0100085F0100085F01000810
:100050005F0100085F0100085F0100085F01000800
:100060005F0100085F0100085F0100085F010008F0
:100070005F0100085F0100085F0100085F010008E0
:100080005F0100085F0100085F0100085F010008D0
:100090005F0100085F0100085F0100085F010008C0
:1000A0005F0100085F0100085F0100085F010008B0
:1000B0005F0100085F0100085F0100085F010008A0
:1000C0005F0100085F0100085F0100085F01000890
:1000D0005F0100085F0100085F0100085F01000880
:1000E0005F0100085F0100085F0100085F01000870
:1000F0005F0100085F0100085F0100085F01000860
:100100005F0100085F0100085F0100085F0100084F
:100110005F0100085F0100085F0100085F0100083F
:100120005F0100085F0100085F0100085F0100082F
:10013000DFF80CD000F018F8004800472D0E00083A
:10014000480400200648804706480047FEE7FEE7CF
:10015000FEE7FEE7FEE7FEE7FEE7FEE7FEE7FEE777
:10016000510C000831010008064C074D06E0E0681C
:1001700040F0010394E8070098471034AC42F6D3EE
:10018000FFF7DAFF6C0E00088C0E0008FEE77047E0
:1001900031B500F009F9009C0546601C00D0641CD4
:1001A00000F002F9401BA042FAD338BD2DE9F84F08
:1001B000DFF8B8A100220AF1040B144601274FF022
:1001C0000F090BF1040E00BF0B6807FA04F52B4072
:1001D000AB4274D1DFF898C14E68A6EB0C086645B7
:1001E0002BD00DDC032E34D005DC36B3012E19D014
:1001F000022E2FD11BE0112E16D0122E2AD119E07B
:10020000B8F5881F19D006DCB8F5803F15D0B8F5D1
:10021000801F1FD111E0B8F5001F0ED0B8F5041FE4
:1002200018D10AE0CA6815E0CA68121D12E0CA684F
:1002300008320FE0CA680C320CE08A682AB1012A41
:100240004FF0080203D0456104E0042202E005619A
:1002500000E00022FF2B01D8064601E000F1040671
:100260004FEA840501D9A5F12005D6F800C009FAA6
:1002700005F82CEA080C02FA05F54CEA050CC6F85C
:1002800000C04D68ED006AD53A4DAE6946F00106F2
:10029000AE61AD6924F0030605F001050095364D09
:1002A00006EB050CDCF80850A6074FEA167809FAA9
:1002B00008F6B543314EB04202D100261AE04EE0B6
:1002C0002F4EB04201D1012614E02E4EB04201D192
:1002D00002260FE02C4EB04201D103260AE02B4E3D
:1002E000B04201D1042605E0294EB04201D10526D5
:1002F00000E0062606FA08F62E43CCF808604D68A2
:10030000DAF80060ED03554601D51E4300E09E4338
:100310002E604D68AD0305D5DBF800601E43CBF8B9
:10032000006004E0DBF800509D43CBF800504D68BE
:10033000DEF80060ED02754601D51E4300E09E43E5
:100340002E604D68AD0205D5084D0C352E681E4354
:100350002E6004E0054E0C3635689D433560641C04
:10036000102CFFF431AFBDE8F88F0000000401400D
:100370000000111000100240000001400008014080
:10038000000C014000100140001401400018014021
:10039000001C0140C2684A40C26070470AB1016156
:1003A00070470904FBE7000001480068704700003F
:1003B0000400002002480168491C016070470000E9
:1003C00004000020074810B5016841F010010160E9
:1003D000032000F07FF8002000F006F800F018F885
:1003E000002010BD0020024010B5044607484FF41D
:1003F0007A710068B0FBF1F000F013FB0022214697
:10040000501E00F047F8002010BD00000000002042
:100410001E4808B5816941F001018161806900F0E1
:1004200001000090032000F055F8002211466FF003
:100430000B0000F02FF8002211466FF00A0000F0C8
:1004400029F8002211466FF0090000F023F800227D
:100450001146501F00F01EF800221146101F00F038
:1004600019F800221146901E00F014F800221146DF
:10047000501E00F00FF80648416821F0E06141602D
:10048000416841F08061416008BD000000100240F9
:1004900000000140F0B40E4B1B680C46C3F302236E
:1004A000C3F10705042D00D90425191D072901D220
:1004B000002300E0DB1E012606FA05F1491E21405B
:1004C00099409E40761E16403143F0BC00F072BB4E
:1004D0000CED00E0064900F0070208684FF6FF0344
:1004E000184040EA0220034A1043086070470000A9
:1004F0000CED00E00000FA052DE9F047DFF83C8143
:1005000005460E46D8F8000000F00700B0420CD2B5
:10051000D8F8001021F007013143C8F80010D8F8CE
:10052000000000F00700B04263D12878444C8007F7
:1005300005D56068A96820F0F0000843606028785D
:10054000C00745D06868012816D02168022816D057
:10055000890700294DDA616821F0030101436160D8
:10056000FFF722FF6968074641F2883001290FD062
:100570000229814619D027E021688903E9E789012A
:10058000E7E700BFFFF710FFC11B494501D918E09D
:1005900081466068C0F381000128F3D118E000BFF4
:1005A000FFF702FFC11B49450BD86068C0F381000B
:1005B0000228F5D10CE000BFFFF7F6FEC11B49454C
:1005C00002D90320BDE8F087606810F00C0FF3D16A
:1005D000D8F80010404601F00701B1420BD901687C
:1005E00021F0070131430160006800F00700B042CC
:1005F00001D00120E6E72878400705D56068E96862
:1006000020F4E060084360602878000706D5606841
:10061000296920F4605040EAC100606000F03CF8B5
:100620006168084AC1F30311515CC840064908607B
:100630000020FFF7D9FE0020C4E7000000200240A0
:1006400000100240540E000800000020014800681D
:100650007047000000000020044805490068496810
:10066000044AC1F30221515CC840704700000020D9
:1006700000100240640E00080448054900684968FB
:10068000044AC1F3C221515CC840704700000020F9
:1006900000100240640E000810B512A385B00FCB05
:1006A0008DE80F0013A0144B006804905A6813489B
:1006B00002F00C0104290FD008290DD1C2F38344A4
:1006C000D2031DF8041009D55A6804ABC2F34042A6
:1006D0009A5CB0FBF2F0484305B010BD08484843AF
:1006E000FAE7000002030405060708090A0B0C0DCF
:1006F0000E0F1010010200000010024000127A00DC
:1007000000093D002DE9F84F04460078B94DC007B7
:1007100048D06868C0F38100012807D06868C0F33A
:100720008100022809D16868C00306D528688003C3
:1007300038D5606800286FD034E06068B0F5803F3D
:100740000BD010B1B0F5A02F11D0286820F4803064
:100750002860286820F4802002E0286840F4803077
:100760002860606888B1FFF71FFE064609E0286828
:1007700040F480202860F0E7FFF716FE801B642815
:1007800075D828688003F7D50CE0FFF70DFE064604
:1007900005E000BFFFF708FE801B6428F0D828683A
:1007A0008003F7D42078944E80074FF001094FF072
:1007B00000083BD5686810F00C0F07D06868C0F3DC
:1007C0008100022809D16868C00306D42868800720
:1007D00014D5206901281FD110E02069B0B1C6F8F6
:1007E0000090FFF7E1FD074605E000BFFFF7DCFDE5
:1007F000C01B0228C4D828688007F7D5286861691B
:1008000020F0F80040EAC10028600FE0C6F8008040
:10081000FFF7CAFD074606E0E9E000BFFFF7C4FDA9
:10082000C01B022823D828688007F7D42078000747
:100830002CD57248A169D9B1C0F80090FFF7B4FD7A
:10084000074604E0FFF7B0FDC01B02280FD8686A16
:100850008007F7D56A484FF4FA510068B0FBF1F011
:10086000009000BF0098411E0091FAD20EE080E097
:10087000C0F80080FFF798FD074604E0FFF794FDFD
:10088000C01B022875D8686A8007F7D42078400713
:1008900060D5E8690027C00008D4E86940F08050BE
:1008A000E861E869012700F0805000905548016830
:1008B000C90513D40168834641F480710160FFF7D4
:1008C00073FD824606E000BFFFF76EFDA0EB0A0055
:1008D00064284ED8DBF80000C005F5D5E068012893
:1008E0000AD008B1052813D0286A20F00100286238
:1008F000286A20F0040002E0286A40F00100286223
:10090000E06841F2883B98B1FFF74EFD82460BE06C
:10091000286A40F004002862EEE700BFFFF744FDBC
:10092000A0EB0A0159455AD8286A8007F6D50CE091
:10093000FFF73AFD824605E0FFF736FDA0EB0A011E
:1009400059454CD8286A8007F6D41FB1E86920F0D1
:100950008050E861E06988B36968C1F381010229C8
:1009600045D00228C6F8608004D0FFF71DFD04467C
:1009700038E034E0FFF718FD074604E0FFF714FD08
:10098000C01B02282BD828688001F7D4206AB0F554
:10099000803F05D16868A16820F400300843686092
:1009A000D4E908010843696821F4741108436860B8
:1009B000C6F86090FFF7F8FC044606E015E000BFBB
:1009C000FFF7F2FC001B022809D828688001F7D540
:1009D0000BE000BFFFF7E8FC001B022802D9032050
:1009E000BDE8F88F28688001F4D40020F8E70120E2
:1009F000F6E700000010024000004242800442423C
:100A000000000020007000404FF0E0210428086939
:100A100003D020F004000861704740F00400FAE7BA
:100A2000704710B5401EB0F1807F01D3012010BD8A
:100A30004FF0E02460610F21601700F0BBF8002048
:100A4000A06107202061002010BD10B5FFF7E8FF6E
:100A500010BD70B5040004D094F83900002510B121
:100A600006E0012070BD84F83850204600F022F8DE
:100A7000242084F839002068C16821F40051C16045
:100A8000204600F009F92068016921F490410161D4
:100A90002068416921F02A0141612068C16841F460
:100AA0000051C160E563202084F8390084F83A00E1
:100AB000002070BD10B50068114986B088421DD174
:100AC0001048816941F48041816180690E4C00F4D5
:100AD000804004904FF400700090022001900320A9
:100AE000039069462046FFF761FB00212015CDE900
:100AF0000001029169462046FFF758FB06B010BD81
:100B0000003801400010024000080140FEE70000EC
:100B1000124810B5816986B041F010018161816988
:100B200001F010010491816941F004018161806943
:100B30000B4C00F004000490002218212046FFF71F
:100B40002DFC18200090012001900220039069469E
:100B50002046FFF72BFB06B010BD0000001002403E
:100B6000001001400D4810B50B4901604FF4E13110
:100B70004160002181600C22C160C0E904128161E2
:100B8000C161FFF766FF002805D0BDE81040422193
:100B900003A000F03AB910BD003801400800002061
:100BA0002E2E2F5372632F75736172742E630000A3
:100BB000FEE770470907090E002806DA00F00F006B
:100BC00000F1E02080F8141D704700F1E02080F86B
:100BD000001470477047704710B5FFF7EBFBBDE896
:100BE0001040FFF732BF30B58FB001210804CDE9C6
:100BF00000100024029402250491CDE907504FF41F
:100C0000E01009906846FFF77DFD00B1FEE70F2078
:100C1000CDE90A054FF48060CDE90C4002210AA815
:100C20000E94FFF769FC00B1FEE7FFF70FFD4FF4EC
:100C30007A71B0FBF1F0FFF7F4FE0420FFF7E4FE59
:100C400000221146501EFFF725FC0FB030BD0000FA
:100C50000D48016841F00101016041680B4A1140F3
:100C6000416001680A4A11400160016821F4802155
:100C70000160416821F4FE0141604FF41F01816071
:100C80000449C00308607047001002400000FFF8EC
:100C9000FFFFF6FE08ED00E02DE9F0410446006894
:100CA0000169E26821F44051114301612169A068A2
:100CB0000843616908432168CA6841F20C639A439A
:100CC0000243CA6020684169A26921F4407111435E
:100CD00041614C4920686425322688423CD1FFF7A7
:100CE000CBFC00EBC00101EB001061688900B0FB98
:100CF000F1F7FFF7C1FC00EBC00101EB00106168E8
:100D0000B0468900B0FBF1F0B0FBF5F06FF01801D0
:100D1000484307EB800106EB0110B0FBF5F000F053
:100D2000F006FFF7A9FC00EBC00101EB00106168C1
:100D30008900B0FBF1F0B0FBF5F006EB0016FFF711
:100D40009BFC00EBC00101EB001061688900B0FB67
:100D5000F1F7FFF791FC3BE0FFF77EFC00EBC001F1
:100D600001EB001061688900B0FBF1F7FFF774FC3C
:100D700000EBC00101EB00106168B0468900B0FBD8
:100D8000F1F0B0FBF5F06FF01801484307EB80017C
:100D900006EB0110B0FBF5F000F0F006FFF75CFC8D
:100DA00000EBC00101EB001061688900B0FBF1F0BD
:100DB000B0FBF5F006EB0016FFF74EFC00EBC001B0
:100DC00001EB001061688900B0FBF1F7FFF744FC0C
:100DD00000EBC00101EB001061688900B0FBF1F08D
:100DE000B0FBF5F06FF01801484307EB800108EB0A
:100DF0000110B0FBF5F0216800F00F00304488606E
:100E0000BDE8F08100380140FEE7FEE702E008C8D7
:100E1000121F08C1002AFAD170477047002001E074
:100E200001C1121F002AFBD170470000FFF7CAFA68
:100E3000FFF7D9FEFFF76CFEFFF794FE044C182174
:100E40002046FFF7A7FA3220FFF7A2F9F7E70000E4
:100E50000010014000000000000000000102030437
:100E60000607080900000000010203048C0E0008B8
:100E700000000020080000000C0E0008940E00087E
:100E800008000020400400001C0E000800A24A04D4
:040E9000000000005E
:0400000508000131BD
:00000001FF
